:060000000A128A11DE2F36
:10000800073400341A342C343E3483120313350871
:10001800BB003608BC003708BD0003103C0D3D0D81
:10002800BE003E08BF00BF08031D21280030B500F0
:100038000030B6000030B70008003808BB003908A7
:10004800BC003A08BD0003103C0D3D0DBE003E0843
:10005800C400C408031D37280030B5000030B600BE
:100068000030B700080044087B3EBB003B08BF07D0
:100078003508BB003608BC003708BD001030031037
:10008800BD0CBC0CBB0CFF3E031D43283B08BE0047
:100098003E08C4003808BB003908BC003A08BD0057
:1000A80010300310BD0CBC0CBB0CFF3E031D5528C3
:1000B8003B08BE003E08C4068030BB003B08C405B0
:1000C800B617B917FF30B805FF30B9050030BA05C3
:1000D8000030C0000030C1000030C2000730BB0053
:1000E8003B08C300351C86283808C00739080311A7
:1000F8000318390A031DC1073A08031103183A0AFD
:10010800031DC20701300310B70CB60CB50CFF3E37
:10011800031D872801300310B80DB90DBA0DFF3E35
:10012800031D8F280130C302031D76280930BB0048
:100138003B08C300351CAE283808C007390803112E
:100148000318390A031DC1073A08031103183A0AAC
:10015800031DC20701300310B70CB60CB50CFF3EE7
:10016800031DAF2801300310C20CC10CC00CFF3EA8
:10017800031DB7280130C302031D9E284008F00064
:100188004108F1004208F2003F08BB003B08F300B9
:100198004408BC003C08F4000A168A11332270088F
:1001A80083120313B5007108B6007208B70008007F
:1001B80083160313C6006930A0002008AD00013083
:1001C80083120313E807FF30680784000A168A11B0
:1001D80000200A128A1183160313A0002008C90000
:1001E800C9080319D92F4908253A0319FD284908D0
:1001F800CE2FBF01C001BD01BE01831203136808E1
:1002080084000A168A1100200A128A110A168A1511
:1002180053260A128A11031C592983160313BF0196
:10022800C0010A30F0000030F100831603134008C3
:10023800F301F3073F08F201F2070A168A11F620C4
:100248000A128A11710883160313C001C0077008C7
:10025800BF01BF0783120313680884000A168A11B6
:1002680000200A128A11D03E83160313A000FF3023
:1002780003180030A1002008BF070318C00A21088E
:10028800C0070130A000200883120313E80768089C
:1002980084000A168A1100200A128A110A168A1581
:1002A80053260A128A1103181529831203136808A2
:1002B80084000A168A1100200A128A112E3A031D98
:1002C800B329831603133E170130A00020088312B8
:1002D8000313E80783160313C701C80183126808CC
:1002E80084000A168A1100200A128A110A168A1531
:1002F80053260A128A11031CBB29831603134808C4
:10030800F101F1074708F001F0070A30F200003068
:10031800F3000A168A11F6200A128A1183120313AF
:10032800680884000A168A1100200A128A117007C8
:1003380083160313A0000030031801307107A100D1
:100348002008D03EC70021080318013EFF3EC80020
:100358000130A000200883120313E80772298316CE
:100368000313C701C8013E16BB293E15D129013028
:1003780083120313E807FF30680784000A168A11FE
:1003880000200A128A1183160313C900003A0319C0
:10039800D92F663A0319B929E32800303D05A00092
:1003A80007303E05A100210820040319142F3E1E22
:1003B800E1290630C7000030C8002D0884008313E7
:1003C8000008C300840A0008C400840A0008C500A5
:1003D8000330A0002008AD07430883120313A700C9
:1003E80083160313440883120313A8008316031308
:1003F800450883120313A9000030AA000030AB009F
:100408000030AC000A168A11D4210A128A11031886
:10041800262A831603134308F0004408F100450810
:10042800F2000A168A153D260A128A1170088316E8
:100438000313C3007108C4007208C5000330BD046B
:100448000030BE0483160313C101C20145084404E9
:10045800430403192E2BC330840083130008A00023
:10046800840A0008A100840A0008A200840A00087F
:10047800A3000F300310A30CA20CA10CA00CFF3E8C
:10048800031D3E2AFF302005A40000302105A500E9
:100498002408823EC10025080318013EFF3EC20021
:1004A800FF30C1070318C20AFF30C2070330F0004B
:1004B8000030F1004208F301F3074108F201F207A6
:1004C8000A168A11F6200A128A1171088316031374
:1004D800C201C2077008C101C1070A30F700003025
:1004E800F8004208FA01FA074108F901F9070A1663
:1004F8008A1119210A128A11780883160313C20176
:10050800C2077708C101C107C21F902AFF30C1077F
:100518000318C20AFF30C2074103FF3A0A128A15BC
:100528005C220A128A1183120313450883160313E7
:10053800B60083120313460883160313B700831209
:100548000313470883160313B800430883120313E1
:10055800B50083160313440883120313B6008316E9
:100568000313450883120313B700831603133608D1
:1005780083120313B8008316031337088312031377
:10058800B90083160313380883120313BA000A123A
:100598008A1109200A128A11831203133508831657
:1005A8000313B60083120313360883160313B70028
:1005B80083120313370883160313B800360883120F
:1005C8000313A70083160313370883120313A80025
:1005D80083160313380883120313A9000030AA00F6
:1005E8008030AB003F30AC000A168A11D4210A12C1
:1005F8008A110318072BFF3083160313C10703184A
:10060800C20AFF302D2B83160313360883120313F7
:10061800A70083160313370883120313A800831651
:100628000313380883120313A9000030AA002030EE
:10063800AB004130AC000A168A11D4210A128A1183
:10064800031C2E2B013083160313C1070318C20A9B
:100658000030C207831603134808803AFF00803031
:100668007F02031D392B0D3047020318742B8316A4
:10067800031347080A128A15C0200A128A11831226
:1006880003134508D5004608D6004708D700831647
:100698000313430883120313D80083160313440873
:1006A80083120313D9008316031345088312031317
:1006B800DA000A168A11C5250A128A118312031351
:1006C800550883160313C3008312031356088316B1
:1006D8000313C40083120313570883160313C500BA
:1006E800831603134208803AFF0080307F02031DFF
:1006F8007F2B0A3041020318B22B831603134508D7
:100708004404430403191D2C430883120313CE0029
:1007180083160313440883120313CF0083160313AD
:10072800450883120313D0000A168A1114230A12EB
:100738008A1183120313510850044F044E04031DF9
:100748001D2C831603134208803AFF0080307F0275
:10075800031DB02B02304102031C1D2C831603130A
:10076800360883120313A70083160313370883126E
:100778000313A80083160313380883120313A90070
:100788007030AA008930AB004030AC000A168A11DC
:10079800D4210A128A110318D32BF730D42BF8303E
:1007A80083160313C1070318C20AFF30C2074108A2
:1007B8000A128A155C220A128A1183120313450849
:1007C80083160313B6008312031346088316031314
:1007D800B70083120313470883160313B8004308AE
:1007E800F0004408F1004508F2003608F300370825
:1007F800F4003808F5000A168A1102250A128A112F
:10080800730883160313AC007208AB007108AA00C2
:100818007008A9002C08BC002B08BB002A08BA00E5
:100828002908B9000030C3000030C4000030C500FA
:100838009A2C83160313430883120313CE008316DE
:100848000313440883120313CF00831603134508C8
:1008580083120313D0000A168A1114230A128A116C
:1008680083120313510883160313BC008312031366
:10087800500883160313BB00831203134F08831613
:100888000313BA00831203134E0883160313B90027
:100898003C0883120313B200831603133B08831228
:1008A8000313B100831603133A0883120313B0002D
:1008B80083160313390883120313AF000A168A1527
:1008C800DD260A128A11831203132F08E20030086A
:1008D800E3003108E400831603134308831203136B
:1008E800E50083160313440883120313E6008316F6
:1008F8000313450883120313E7000A168A156126B5
:100908000A128A1183120313620883160313C300A1
:1009180083120313630883160313C400831203139B
:10092800640883160313C500C101C201C901C90ABD
:1009380049080A3A0319DC2C4908A00001300310C1
:10094800A00DFF3E031DA32C0310200D013E8400C3
:100958000A168A1100200A128A11A1000A168A11A1
:1009680000200A128A11A2000A168A1100200A120F
:100978008A11A3000A168A1100200A128A11A400FB
:1009880024083C02031DD22C23083B02031DD22C51
:1009980022083A02031DD22C21083902031CDC2C40
:1009A8000130A0002008C90749080A3A031DA02CF5
:1009B80047084907A00048080318480A003EC91B11
:1009C800FF3EA10041082007A20042080318420A7E
:1009D8002107A3002208BF022308031CC003C0028A
:1009E800480847040319FE2CFF30BF070318C00A44
:1009F800FF30C00703303D05A00000303E05A100D0
:100A08002108200403190E2DFF30BF070318C00A60
:100A1800FF30C0074008803AFF0080307F02031D86
:100A2800172D01303F02031C272D20308316031396
:100A3800A000460884002008831780000130A00029
:100A48002008C607082D0330831603133D05A000B0
:100A580000303E05A1002108200403193E2D2D3049
:100A6800A000460884002008831780000130A000F9
:100A78002008C607FF30A0002008C9074908FF3A28
:100A88000319B62D4908A00001300310A00DFF3E40
:100A9800031D492D0310200D013E84000A168A11FA
:100AA80000200A128A11F0000A168A1100200A1280
:100AB8008A11F1000A168A1100200A128A11F2001E
:100AC8000A168A1100200A128A11F3003C08F7005E
:100AD8003B08F6003A08F5003908F4000A168A11AE
:100AE80076210A128A11730883160313B10072085B
:100AF800B0007108AF007008AE000030F30000309D
:100B0800F2000030F1000A30F0003108F700300838
:100B1800F6002F08F5002E08F4000A168A150C278F
:100B28000A128A11730883160313B1007208B00001
:100B38007108AF007008AE002E08303E342D3030FA
:100B480083160313A000460884002008831780003A
:100B58000130A0002008C607FF30C1070318C20AE9
:100B6800FF30C2074208803AFF0080307F02031D31
:100B7800BF2D013041020318A32D83160313480823
:100B8800803AFF0080307F02031DCC2D09304702D8
:100B9800031CD22D083083160313D52D8316031397
:100BA8004708A0002008C9004908A000A101A01B0F
:100BB800A1032008C7022108031CC803C80249086A
:100BC8000319F12D2E30A000460884002008831751
:100BD80080000130A0002008C60749080A128A15BB
:100BE8005C220A128A118312031345088316031321
:100BF800A60083120313460883160313A700831263
:100C08000313470883160313A80026088312031347
:100C1800B80083160313270883120313B900831639
:100C28000313280883120313BA0083160313430817
:100C380083120313B50083160313440883120313A6
:100C4800B60083160313450883120313B7000A126C
:100C58008A1109200A128A11831203133508CE005B
:100C68003608CF003708D0000A168A1114230A1252
:100C78008A1183120313510883160313BC008312CD
:100C88000313500883160313BB00831203134F0882
:100C980083160313BA00831203134E088316031333
:100CA800B900FF30A0002008C9074908FF3A031916
:100CB8000F2F4908A00001300310A00DFF3E031DAF
:100CC800602E0310200D013E84000A168A110020B0
:100CD8000A128A11F0000A168A1100200A128A11D3
:100CE800F1000A168A1100200A128A11F2000A1667
:100CF8008A1100200A128A11F3003C08F7003B0809
:100D0800F6003A08F5003908F4000A168A11762127
:100D18000A128A11730883160313B5007208B40007
:100D28007108B3007008B2000030F3000030F20020
:100D38000030F1000A30F0003508F7003408F600FA
:100D48003308F5003208F4000A168A150C270A122F
:100D58008A11730883160313B5007208B40071086A
:100D6800B3007008B2003208303EA0004608840084
:100D78002008831780000130A0002008C607490812
:100D8800A00001300310A00DFF3E031DC62E031066
:100D9800200D013E84000A168A1100200A128A11C9
:100DA800F0000A168A1100200A128A11F1000A16A8
:100DB8008A1100200A128A11F2000A168A110020EC
:100DC8000A128A11F3003C08F7003B08F6003A08BB
:100DD800F5003908F4000A168A150C270A128A1138
:100DE800730883160313BC007208BB007108BA00AD
:100DF8007008542E3030A00046088400200883175D
:100E080080000130A0002008C607FF30C70703187C
:100E1800C80AFF30C807480847040319E328FE2E0C
:100E280048084704031D242F3C083B043A043904AE
:100E3800031D242F0130C7070318C80A0030C8074C
:100E48004908A000A101A01BA1032108803AA20023
:100E58004808803A2202031D332F4708200203184E
:100E68003C2F831603134708A0002008C900562FFB
:100E7800831603134908A000A101A01BA103480879
:100E8800803AA2002108803A2202031D4D2F200833
:100E980047020318562F831603134908C700C801D1
:100EA800C71BC8038316031340083F0403196C2F9C
:100EB80003303D05A00000303E05A10021082004B4
:100EC80003196C2FFF30BF070318C00AFF30C00793
:100ED8003E1F872F4808803AA0004008803A200229
:100EE800031D782F3F0847020318832F8316031327
:100EF8004708BF024808031CC003C002872F831697
:100F08000313BF01C0014908A000A101A01BA10350
:100F18002108803AA2004008803A2202031D962F39
:100F28003F0820020318A62F831603134908A000C0
:100F3800A101A01BA1032008BF022108031CC003B4
:100F4800C002AA2F83160313BF01C00140083F0443
:100F58000319C32F2030A0004608840020088317F7
:100F680080000130A0002008C607FF30BF07031823
:100F7800C00AFF30C00740083F04031DAE2F0330EE
:100F88003D05A00000303E05A100210820040319FA
:100F9800E3282D30A000460884002008831780002D
:100FA8000130A0002008C607E328460884008317FC
:100FB80080010800831603170A128A1104200A12F6
:100FC8008A11DD000A128A1105200A128A11DE0030
:100FD8000A128A1106200A128A11DF000A128A11DF
:100FE80007200A128A11E0000A128A110820E1007B
:080FF80083010A128A15FB2C8B
:1010080083120313A600A501261C0E282408FC0041
:101018007C08A5070310A40D0310A60CA608031D41
:10102800082825080800CA3084007808831380003F
:10103800840A79088000840A7A088000840A7B0878
:101048008000840A7C0880000030831603134B0656
:10105800031D302805304A06031D3428850147281A
:1010680000304B06031D3A2806304A06031D3E2869
:101078008601472800304B06031D442807304A06DE
:10108800031D08008701343083120313A100F130D7
:10109800A000A00B4D28A10B4D28522803300A169A
:1010A8008A15A5270A128A150D3083120313A10089
:1010B800FB30A000A00B5E28A10B5E28632803303C
:1010C8000A168A15A5270A128A152A3083120313CD
:1010D800A1008D30A000A00B6F28A10B6F287428E9
:1010E80003300A168A15A5270A128A1502300A162D
:1010F8008A15A5270A128A1502300A168A15A52705
:101108000A128A1508300A168A15A5270A128A159E
:1011180000300A168A15A5270A128A1506300A16FB
:101128008A15A5270A128A15083083120313A0000E
:101138002008FD007D157D08A00004300310A00CD8
:10114800FF3E031DA22820080F390A168A15A52775
:101158000A128A157D080F390A168A15A5270A1258
:101168008A1500300A168A15A5270A128A15013031
:101178000A168A15A527080083120313D4006E30B7
:101188005402031CA0290330C8004808A4000A30F0
:10119800F7000030F8005408C900CA014908F200F5
:1011A8004A08F3006430F0000030F1000A168A158E
:1011B80058270A128A157108FA01FA077008F90106
:1011C800F9070A168A1119210A128A157708093EA1
:1011D8000A128A1504200A128A15293E84000A1662
:1011E8008A1100200A128A1583120313B5000A1601
:1011F8008A1100200A128A15B6000A168A110020E0
:101208000A128A15B7000330CB004B08A4006430DB
:10121800F7000030F8005408CC00CD014C08F90064
:101228004D08FA000A168A1119210A128A15770838
:10123800123E0A128A1504200A128A15293E8400D1
:101248000A168A1100200A128A1583120313B8009D
:101258000A168A1100200A128A15B9000A168A117C
:1012680000200A128A15BA000A128A1109200A12E5
:101278008A15831203133508D1003608D2003708BF
:10128800D3000330C8004808A4005408C900CA01A4
:101298004908F2004A08F3000A30F0000030F10073
:1012A8000A168A1558270A128A1570080A128A150A
:1012B80004200A128A15293E84000A168A11002081
:1012C8000A128A1583120313B5000A168A11002020
:1012D8000A128A15B6000A168A1100200A128A15FF
:1012E800B7005108B8005208B9005308BA000A12EA
:1012F8008A1109200A128A15831203133508CE00B1
:101308003608CF003708D0000030B5000030B600EE
:101318003F30B7004E08B8004F08B9005008BA006F
:101328000A128A110920831203133508C5003608EA
:10133800C6003708C70008000B305402031C2A2ACD
:101348000330C8004808A4005408C900CA01490865
:10135800F2004A08F3000A30F0000030F1000A16E3
:101368008A1558270A128A1570080A128A15042045
:101378000A128A15293E84000A168A1100200A12C8
:101388008A1583120313B5000A168A1100200A125F
:101398008A15B6000A168A1100200A128A15B700A3
:1013A8000330CB004B08A4000A30F7000030F800E7
:1013B8005408CC00CD014C08F9004D08FA000A1673
:1013C8008A1119210A128A157708093E0A128A1504
:1013D80004200A128A15293E84000A168A11002060
:1013E8000A128A1583120313B8000A168A110020FC
:1013F8000A128A15B9000A168A1100200A128A15DB
:10140800BA000A128A1109200A128A1583120313D4
:101418003508D1003608D2003708D3000030B500AF
:101428000030B6003F30B7005108B8005208B90084
:101438005308BA000A128A110920831203133508C7
:10144800C5003608C6003708C70008000030B500D8
:101458000030B6003F30B7000330C8004808A40089
:1014680054080A128A1504200A128A15293E840093
:101478000A168A1100200A128A1583120313B8006B
:101488000A168A1100200A128A15B9000A168A114A
:1014980000200A128A15BA000A128A11092083123A
:1014A80003133508C5003608C6003708C70008000A
:1014B80083120313CD00CD1FAF2BCD09CD0A4D08E4
:1014C800803A123E031C222B0330C8004808A400AF
:1014D8000A30F7000030F8004D08F200F301F21B63
:1014E800F3036430F0000030F1000A168A1558271B
:1014F8000A128A157108FA01FA077008F901F90742
:101508000A168A1119210A128A157708093E0A1241
:101518008A1504200A128A15293E84000A168A119F
:1015280000200A128A1583120313B5000A168A11BD
:1015380000200A128A15B6000A168A1100200A121B
:101548008A15B7000330C9004908A4006430F700C1
:101558000030F8004D08F900FA01F91BFA030A16E1
:101568008A1119210A128A157708123E0A128A1559
:1015780004200A128A15293E84000A168A110020BE
:101588000A128A1583120313B8000A168A1100205A
:101598000A128A15B9000A168A1100200A128A1539
:1015A800BA000A128A1109200A128A158312031333
:1015B8003508CA003608CB003708CC000330C8000D
:1015C8004808A4004D08F200F301F21BF3030A30A7
:1015D800F0000030F1000A168A1558270A128A15F9
:1015E80070080A128A1504200A128A15293E8400F6
:1015F8000A168A1100200A128A1583120313B500ED
:101608000A168A1100200A128A15B6000A168A11CB
:1016180000200A128A15B7004A08B8004B08B9001A
:101628004C08BA000A128A110920831203133508DC
:10163800C5003608C6003708C70008004D08803ABC
:10164800753E031C902B0330C8004808A4004D08C1
:10165800F200F301F21BF3030A30F0000030F1004E
:101668000A168A1558270A128A1570080A128A1546
:1016780004200A128A15293E84000A168A110020BD
:101688000A128A1583120313B5000A168A1100205C
:101698000A128A15B6000A168A1100200A128A153B
:1016A800B7000330C9004908A4000A30F700003029
:1016B800F8004D08F900FA01F91BFA030A168A1115
:1016C80019210A128A157708093E0A128A15042078
:1016D8000A128A15293E84000A168A1100200A1265
:1016E8008A1583120313B8000A168A1100200A12F9
:1016F8008A15B9000A168A1100200A128A15BA003A
:101708000A128A110920831203133508C500360806
:10171800C6003708C70008000330C8004808A400FE
:101728004D080A128A1504200A128A15293E8400D7
:101738000A168A1100200A128A1583120313C5009B
:101748000A168A1100200A128A15C6000A168A117A
:101758000020C70008004D08803A123E031C6E2C7A
:101768000330C8004808A4000A30F7000030F80029
:101778004D08F200F301F21BF3036430F00000306F
:10178800F1000A168A1558270A128A157108FA01F3
:10179800FA077008F901F9070A168A1119210A12BD
:1017A8008A157708093E0A128A1504200A128A1532
:1017B800503E84000A168A1100200A128A158312E4
:1017C8000313B5000A168A1100200A128A15B600FA
:1017D8000A168A1100200A128A15B7000330C900B8
:1017E8004908A4006430F7000030F8004D08F900FB
:1017F800FA01F91BFA030A168A1119210A128A1525
:101808007708123E0A128A1504200A128A15503ED9
:1018180084000A168A1100200A128A1583120313FB
:10182800B8000A168A1100200A128A15B9000A1689
:101838008A1100200A128A15BA000A128A11092090
:101848000A128A15831203133508CA003608CB001A
:101858003708CC000330C8004808A4004D08F2003F
:10186800F301F21BF3030A30F0000030F1000A160E
:101878008A1558270A128A1570080A128A15042030
:101888000A128A15503E84000A168A1100200A128C
:101898008A1583120313B5000A168A1100200A124A
:1018A8008A15B6000A168A1100200A128A15B7008E
:1018B8004A08B8004B08B9004C08BA000A128A1145
:1018C8000920831203133508C5003608C6003708F7
:1018D800C70008004D08803A753E031CDC2C033015
:1018E800C8004808A4004D08F200F301F21BF303F6
:1018F8000A30F0000030F1000A168A1558270A123B
:101908008A1570080A128A1504200A128A15503E90
:1019180084000A168A1100200A128A1583120313FA
:10192800B5000A168A1100200A128A15B6000A168E
:101938008A1100200A128A15B7000330C900490825
:10194800A4000A30F7000030F8004D08F900FA0149
:10195800F91BFA030A168A1119210A128A1577083F
:10196800093E0A128A1504200A128A15503E84007C
:101978000A168A1100200A128A1583120313B80066
:101988000A168A1100200A128A15B9000A168A1145
:1019980000200A128A15BA000A128A110920831235
:1019A80003133508C5003608C6003708C700080005
:1019B8000330C8004808A4004D080A128A150420FC
:1019C8000A128A15503E84000A168A1100200A124B
:1019D8008A1583120313C5000A168A1100200A12F9
:1019E8008A15C6000A168A110020C7000800831647
:1019F8000317D101D201D301DA01D401D501CC30CA
:101A080084005D0883178000840A5E088000840AC9
:101A18005F088000840A60088000840A61088000EA
:101A2800783084004C088000840A4D088000840ABD
:101A38004E088000840A4F088000840A50088000FD
:101A48000A128A1517200A128A150A168A157D267F
:101A58000A128A150A168A1545260A128A15831249
:101A6800031306185F2D83160317D308031D5F2D74
:101A7800033083120313ED009730EC00EC0B422D7A
:101A8800ED0B422D472D8312031386194D2D861514
:101A98004E2D861100300A168A15A5270A128A15B6
:101AA80001300A168A15A5270A128A158316031704
:101AB800D301D30A662D83120313061C662D8316E1
:101AC8000317D301831203130619862D83160317F0
:101AD800D208031D862D033083120313ED009730BF
:101AE800EC00EC0B752DED0B752D7A2D831203137D
:101AF8008718802D8714812D871083160317D2012C
:101B0800D20A8D2D83120313061D8D2D83160317FC
:101B1800D201831203138619A42D0C300A168A15D4
:101B2800A5270A128A1500300A168A15A5270A124F
:101B38008A15CB300A168A15BB260A128A15332D48
:101B4800061EDD2D00300A168A15A5270A128A15E9
:101B580001300A168A15A5270A128A150C300A16AA
:101B68008A15A5270A128A1500300A168A15A5278C
:101B78000A128A1577300A168A15BB260A128A15A0
:101B880083120313061AC42D0330ED009730EC00BE
:101B9800EC0BCC2DED0BCC2DD12D00300A168A156F
:101BA800A5270A128A1501300A168A15A5270A12CE
:101BB8008A1583160317DA08031DE52DD4010230B0
:101BC800EE2D033083120313EC006C088316031701
:101BD800D400043083120313EC006C088316031737
:101BE800D500540883120313EC00ED016C0883162A
:101BF8000317DB00831203136D0883160317DC0039
:101C08005C08803A803C031D0B2E5B085502031CC0
:101C1800342F033083120313EC006C08A4008316DE
:101C280003175B080A128A1504200A128A15BD3E9A
:101C38008400273083120313D5009530D600C130B5
:101C4800D7005330B5001630B6003D30B700E83045
:101C5800A0000330A100831603175B080A168A1137
:101C68009B220A128A15831203132308B200220842
:101C7800B1002108B0002008AF000A168A15DD2639
:101C88000A128A15831203132F08B8003008B90006
:101C98003108BA000A128A1109200A128A15831219
:101CA80003133508D8003608D9003708DA000A16B1
:101CB8008A11C5250A128A1583120313550883173A
:101CC8008000840A56088000840A57088000033080
:101CD800EC006C08A400831603175B080A128A1527
:101CE80004200A128A15BD3E840083170008831257
:101CF8000313A700840A0008A800840A0008A900A2
:101D08000030AA000030AB000030AC000A168A117F
:101D1800D4210A128A15031CDA2E203083120313E9
:101D2800EC000930ED006D08A400831603175B086A
:101D38000A128A1504200A128A15903E840083121A
:101D480003136C08831780000330EC006C08A400B0
:101D5800831603175B080A128A1504200A128A15CB
:101D6800BD3E84008317000883160317D600840A33
:101D78000008D700840A0008D8000930831203132A
:101D8800EC006C08A400831603175B080A128A1576
:101D980004200A128A15013E903E83120313ED00B7
:101DA8006D0883160317D900E0300C2F0330831217
:101DB8000313EC006C08A400831603175B080A12CF
:101DC8008A1504200A128A15BD3E8400831700086C
:101DD80083160317D600840A0008D700840A00086F
:101DE800D800093083120313EC006C08A400831692
:101DF80003175B080A128A1504200A128A15903EF6
:101E080083120313ED006D0883160317D900E7301A
:101E180083120313EC006C08E800831603175608B6
:101E280083120313E9008316031757088312031359
:101E3800EA0083160317580883120313EB0083166E
:101E4800031759080A128A11DC200A128A15013070
:101E580083160317DB070318DC0A0030DC07042E9F
:101E6800831203138618622F83160317D108031DE4
:101E7800622F033083120313ED009730EC00EC0B54
:101E8800432FED0B432F482F83160317DA08031D42
:101E9800502FDA01DA0A512FDA0100300A168A15B2
:101EA800A5270A128A1501300A168A15A5270A12CB
:101EB8008A1583160317D101D10A692F83120313D8
:101EC800861C692F83160317D10183160317DA08B6
:101ED800031DC92F08300A168A15A5270A128A1564
:101EE80000300A168A15A5270A128A15A1300A1683
:101EF8008A15BB260A128A150C300A168A15A527D8
:101F08000A128A1500300A168A15A5270A128A1598
:101F180090300A168A159C260A128A150C300A1661
:101F28008A15A5270A128A150A300A168A15A527BE
:101F38000A128A1599300A168A159C260A128A15D9
:101F480009300A168A15A5270A128A1504300A16B6
:101F58008A15A5270A128A158C300A168A15BB26F7
:101F68000A128A150D300A168A15A5270A128A152B
:101F780009300A168A15A5270A128A15A2300A16E8
:101F88008A159C260A128A15332D0C300A168A15D2
:101F9800A5270A128A1500300A168A15A5270A12DB
:101FA8008A15B6300A168A15BB260A128A15093010
:101FB8000A168A15A5270A128A1504300A168A15E0
:101FC800A5270A128A15AB300A168A159C260A120A
:101FD8008A1509300A168A15A5270A128A150E309D
:101FE8000A168A15A5270A128A15B4300A168A1500
:101FF8009C260A128A15332D10308A000408840A98
:102008008207003401340034003400340A340034C8
:10201800003400346434003400340034E8340334C9
:10202800003400341034273400340034A0348634AB
:1020380001340034403442340F3400348034963450
:10204800983400340034E134F53405340034CA34AB
:102058009A343B34003480343F34CD34CC343D346E
:10206800D73423343C34123483343A34B734D1343B
:102078003834C63427343734383486343534C034A9
:10208800D6343334CC342B3432347034893430344D
:10209800E734DB342E34E5343C341E344234A23485
:1020A8000D34003480343F3400342034413400345B
:1020B800C834423400347A34443440341C3446340E
:1020C8005034C3344734243474344934973418347E
:1020D8004B34BC34BE344C346B346E344E3403341D
:1020E800153450347934AD346034F33449347134B0
:1020F8002034203420342034203420342034203438
:102108002A342A342A342A342034203420342034FF
:102118002034203420342034003420342034203437
:102128002034203420342034203433342E343334D3
:1021380056342034203420342034203420342034C1
:1021480020340034203420342034203435345634BC
:1021580020342034203420342034203420342D34CA
:10216800353456342034203420342034003420349C
:10217800203420342034313432345634203420345E
:1021880020342034203420342D3431343234563441
:10219800203420342034003420342A342A342A3499
:1021A800203420345334543441344E3444342034AD
:1021B80042345934203420342A342A342A342034FE
:1021C8000034253436342E34333466344134003404
:0E21D800253437342E34333466344134003429
:1021EC00F401F501701C00297208F4070318F50AB4
:1021FC007308F50701300310F20DF30DFF3E031DBC
:10220C00012901300310F10CF00CFF3E031D0829CD
:10221C0071087004031DF8287508F101F1077408A2
:10222C00F001F007080083120313A101F81F252900
:10223C00F709F809F70A0319F80AA101A10AFA1F0C
:10224C003029F909FA09F90A0319FA0A0130FB00D5
:10225C007B08A106A201A30178087704031967295A
:10226C00A001A00AF81B462901300310F70DF80D48
:10227C00FF3E031D3B290130FB007B08A0073829DA
:10228C0001300310A20DA30DFF3E031D4729780852
:10229C007A02031D532977087902031C5C297708FD
:1022AC00F9027808031CFA03FA0222140130031015
:1022BC00F80CF70CFF3E031D5D290130A002031D35
:1022CC004629210803196F29A209A309A20A031997
:1022DC00A30A2308F801F8072208F701F7070800FA
:1022EC000030FC000030FB000030FA000030F90038
:1022FC0073087204710470040319CB29FD01FD0AE3
:10230C00F31B96290130F8000310F00DF10DF20DBE
:10231C00F30DF80B8A290130F8007808FD0786299F
:10232C000130F8000310F90DFA0DFB0DFC0DF80B44
:10233C00982973087702031DAD2972087602031DD4
:10234C00AD2971087502031DAD2970087402031CB8
:10235C00BE297008F4027108031C710FF502720893
:10236C00031C720FF6027308031C730FF702791427
:10237C0001300310F30CF20CF10CF00CFF3E031DBA
:10238C00BF290130FD02031D96297C08F3007B0850
:10239C00F2007A08F1007908F000080083120313A8
:1023AC00A91FFD290030AD000030AE008030AF0019
:1023BC002709B0002809B1002909B200B00A031995
:1023CC00B10A0319B20A3008AD0731080318310FEE
:1023DC00F029F129AE0732080318320FF629F72934
:1023EC00AF072D08A7002E08A8002F08A900AC1FC6
:1023FC00242A0030AD000030AE008030AF002A0936
:10240C00B0002B09B1002C09B200B00A0319B10AB3
:10241C000319B20A3008AD0731080318310F172A17
:10242C00182AAE0732080318320F1D2A1E2AAF07CE
:10243C002D08AA002E08AB002F08AC008030A9068E
:10244C008030AC062C082902031D08002B0828023A
:10245C00031D08002A0827020800730803193B2AE9
:10246C00720871047004031D4E2A0030F000003015
:10247C00F1000030F20008000130F5007508F30798
:10248C0001300310F20CF10CF00CFF3E031D472A37
:10249C00FE3072050319692A422A0130F5007508CD
:1024AC00F3070130F007003003180130F10700305A
:1024BC0003180130F20701300310F20CF10CF00C90
:1024CC00FF3E031D622AFF3072050319782A532A36
:1024DC000130F30201300310F00DF10DF20DFF3E4F
:1024EC00031D712AF11F6E2A7318822AFF30F00522
:1024FC007F30F105FF30F2050310F30C7308F50083
:10250C00F601F70110300310F50DF60DF70DFF3E37
:10251C00031D892A7508F0047608F1047708F20483
:10252C00740803190800F217080083120313AE0095
:10253C000030AB000030AA000030A9000030A80029
:10254C0021082004031DAE2A0130A0000030A10098
:10255C0005302E020318AE012E08A400A40DA40D04
:10256C00A40D1F082406C73924069F000930A400B7
:10257C00A40BBE2AC12A83120313AC01AD0121089E
:10258C002D02031DCB2A20082C020318F82A1F1534
:10259C001F19CE2A831603131E0883120313A400DB
:1025AC001E08A5000030A51BFF30A600A7002408BC
:1025BC00A807250803110318013E031DA9072608C7
:1025CC0003110318013E031DAA0727080311031862
:1025DC00013E031DAB070130AC070318AD0A0030F8
:1025EC00AD07C52A2008F0002108F100F201F30123
:1025FC002B08F7002A08F6002908F5002808F40033
:10260C000A168A117621730883120313A300720829
:10261C00A2007108A1007008A00008008312031327
:10262C004E08D2004F08D3005008D4000310530DAD
:10263C00540DD5005508DB00DB08031D2E2B003094
:10264C00D1000030D0000030CF000030CE000800A8
:10265C004E08D2004F08D3005008D4001730031096
:10266C00D40CD30CD20CFF3E031D352B5208D500D5
:10267C005508D600CF17FF30CE05FF30CF05003000
:10268C00D0054E08D7004F08D8005008D900DA0101
:10269C008E30DB02DB1F702B5B08803A8F3E0318F9
:1026AC00602B0030D1000030D0000030CF00003063
:1026BC00CE00080001300310DA0CD90CD80CD70C62
:1026CC00FF3E031D612B0130D2005208DB070319BA
:1026DC008B2B602B18305B02031C882B0030D10035
:1026EC000030D0000030CF000030CE0008000130A8
:1026FC00D2000310D70DD80DD90DDA0DD20B7F2BCC
:10270C000130DB02DB08031D7D2B56080319992BC6
:10271C00D709D809D909DA09D70A0319D80A03192C
:10272C00D90A0319DA0A5A08D1005908D0005808F6
:10273C00CF005708CE000800F7000130F4008316D4
:10274C0003134C080739013EAD2B0310F40DFF3E6B
:10275C00031DAB2B7408F5004A08840083174B1C2F
:10276C008313750880047708F40004300310F40C0C
:10277C00FF3E031DBC2B74080F390A168A11402426
:10278C000A168A110130F400831603134C0CF50061
:10279C00F50C750C0739013ED52B0310F40DFF3EDB
:1027AC00031DD32B7408F6004A08840083174B1CB6
:1027BC008313760880041A30F400F40BE32B00002A
:1027CC000130F400831603134C0CF500F50C750C5A
:1027DC000739013EF32B0310F40DFF3E031DF12BC3
:1027EC007408FF3AF6004A08840083174B1C8313C5
:1027FC007608800577080F390A168A1140240A16C4
:10280C008A110130F400831603134C0CF500F50CFF
:10281C00750C0739013E142C0310F40DFF3E031DFB
:10282C00122C7408F6004A08840083174B1C83137F
:10283C00760880041A30F400F40B222C00000130CE
:10284C00F400831603134C0CF500F50C750C0739CA
:10285C00013E322C0310F40DFF3E031D302C740886
:10286C00FF3AF6004A08840083174B1C8313760842
:10287C0080050800F300731C5A2C0130F0008316FD
:10288C0003134D080739013E4D2C0310F00DFF3E8C
:10289C00031D4B2C7008F1004A08840083174B1C55
:1028AC00831371088004712C0130F000831603131C
:1028BC004D080739013E642C0310F00DFF3E031D3B
:1028CC00622C7008FF3AF1004A08840083174B1CF5
:1028DC00831371088005F31C8B2C0130F0004D0C18
:1028EC00F100F10C710C0739013E7E2C0310F00D38
:1028FC00FF3E031D7C2C7008F2004A0884008317ED
:10290C004B1C831372088004A32C0130F0004D0C77
:10291C00F100F10C710C0739013E962C0310F00DEF
:10292C00FF3E031D942C7008FF3AF2004A08840005
:10293C0083174B1C831372088005731DBA2C01304E
:10294C00F0004E080739013EAD2C0310F00DFF3E90
:10295C00031DAB2C7008F1004A08840083174B1C34
:10296C00831371088004CF2C0130F0004E08073916
:10297C00013EC22C0310F00DFF3E031DC02C70084D
:10298C00FF3AF1004A08840083174B1C831371082B
:10299C008005F31DE92C0130F0004E0CF100F10C18
:1029AC00710C0739013EDC2C0310F00DFF3E031DAA
:1029BC00DA2C7008F2004A08840083174B1C83132E
:1029CC007208800408000130F0004E0CF100F10C8C
:1029DC00710C0739013EF42C0310F00DFF3E031D62
:1029EC00F22C7008FF3AF2004A08840083174B1C43
:1029FC0083137208800508007008F6007108F70050
:102A0C007208F8000310770D780DF900790883121D
:102A1C000313A500A508031D1C2D0030F300003086
:102A2C00F2000030F1000030F00008007308F600EE
:102A3C007408F7007508F8000310770D780DF9008D
:102A4C007908A400A408031D342D0030F3000030D5
:102A5C00F2000030F1000030F0000800F117FF30F8
:102A6C00F005FF30F1050030F205F417FF30F305E7
:102A7C00FF30F4050030F5050030A3000030A20053
:102A8C000030A1000030A0007F30A5029830240750
:102A9C00F6007608A5021830F6007608A40001307E
:102AAC00F6000310A00DA10DA20DA30DF60B572DD2
:102ABC0075087202031D682D74087102031D682DC0
:102ACC0073087002031C752D7308F0027408031C44
:102ADC00740FF1027508031C750AF2022014013000
:102AEC000310F00DF10DF20DFF3E031D762D01309C
:102AFC00A402031D552DA51FA12D2508803A973E34
:102B0C000318912D0030F3000030F2000030F1007A
:102B1C000030F000080001300310A30CA20CA10C33
:102B2C00A00CFF3E031D922D0130F6007608A50780
:102B3C000319BC2D912D18302502031CB92D003022
:102B4C00F3000030F2000030F1000030F00008001B
:102B5C000130F6000310A00DA10DA20DA30DF60B74
:102B6C00B02D0130A502A508031DAE2D2308F300DE
:102B7C002208F2002108F1002008F000080083125E
:102B8C0003135508DB005608DC005708DD00031062
:102B9C005C0D5D0DDE005E08E1005808DB00590895
:102BAC00DC005A08DD0003105C0D5D0DDE005E08D4
:102BBC00E00061080319EE2D600861020318F52D81
:102BCC006103FF3A6007DB0019305B02031CF52D33
:102BDC005808D5005908D6005A08D70008006008D4
:102BEC0003190800610860020318042E6003FF3A01
:102BFC006107DB0019305B02031808000630DB00AC
:102C0C005B08DF00D71BDF17DA1B5F17D617FF3007
:102C1C00D505FF30D6050030D705D917FF30D805BC
:102C2C00FF30D9050030DA05600861020318442E24
:102C3C0001300310D80DD90DDA0DFF3E031D1F2EE8
:102C4C000130E0026008610603193F2E0130DF02FB
:102C5C005F08073903193F2E1E2E01300310D70CC5
:102C6C00D60CD50CFF3E031D342E0130DB005B0867
:102C7C00E1076108600603196D2E332E61086002AE
:102C8C0003186D2E01300310D50DD60DD70DFF3E58
:102C9C00031D492E0130E102600861060319692EFB
:102CAC000130DF025F0807390319692E482E013005
:102CBC000310DA0CD90CD80CFF3E031D5E2E01302C
:102CCC00DB005B08E00761086006031D5D2EDF1F5B
:102CDC007F2EFF30D506FF30D606FF30D7060130E9
:102CEC00D507003003180130D60700300318013027
:102CFC00D7075F1F912EFF30D806FF30D906FF3063
:102D0C00DA060130D807003003180130D90700303B
:102D1C0003180130DA07DF015508D80756080311EC
:102D2C000318560A031DD907570803110318570A2D
:102D3C00031DDA07DA1FB42EFF30D806FF30D90690
:102D4C00FF30DA060130D807003003180130D907FC
:102D5C00003003180130DA07DF01DF0A5808F000F1
:102D6C005908F1005A08F2006108DB005B08F30017
:102D7C005F08DC005C08F4000A168A113322700824
:102D8C0083120313D5007108D6007208D70008000F
:102D9C00703084000008F600840A0008F700840AEA
:102DAC000008F800840A0008F9000310780D790D6A
:102DBC00FA007A0883120313A500A508031DEF2E51
:102DCC000030F3000030F2000030F1000030F00071
:102DDC000800733084000008F600840A0008F7002D
:102DEC00840A0008F800840A0008F9000310780D22
:102DFC00790DFA007A08A400A408031D0E2F0030E8
:102E0C00F3000030F2000030F1000030F000080058
:102E1C007030840000308004840A00308004840AFE
:102E2C0080308004840A0030800470308400FF30CD
:102E3C008005840AFF308005840AFF308005840AEF
:102E4C00003080057330840000308004840A003028
:102E5C008004840A80308004840A0030800473303B
:102E6C008400FF308005840AFF308005840AFF301F
:102E7C008005840A003080050030A3000030A200D9
:102E8C000030A1000030A0007F30A502A030240744
:102E9C00F6007608A5022030F6007608A400013072
:102EAC00F6000310A00DA10DA20DA30DF60B572FCC
:102EBC00733084000008F600840A0008F700840AC6
:102ECC000008F800840A0008F9007030840000083B
:102EDC00FA00840A0008FB00840A0008FC00840A3B
:102EEC000008FD0079087D02031D862F78087C02FE
:102EFC00031D862F77087B02031D862F76087A0226
:102F0C00031CAB2F733084000008F600840A000801
:102F1C00F700840A0008F800840A0008F9007030F1
:102F2C00840076088002840A7708031C770F8002DD
:102F3C00840A7808031C780F8002840A7908031C21
:102F4C00790A80020330840220147030840003104C
:102F5C00800D840A800D840A800D840A800D840300
:102F6C00840384030130A402031D552FA51FDC2FFD
:102F7C002508803A9F3E0318CC2F0030F300003018
:102F8C00F2000030F1000030F000080001300310B6
:102F9C00A30CA20CA10CA00CFF3E031DCD2F0130E5
:102FAC00F6007608A5070319F72FCC2F2030250241
:102FBC00031CF42F0030F3000030F2000030F1005D
:102FCC000030F00008000130F6000310A00DA10D38
:102FDC00A20DA30DF60BEB2F0130A502A508031DC6
:102FEC00E92F2308F3002208F2002108F100200841
:042FFC00F0000800D9
:103C7A00720871047004031908008030F206080003
:103C8A008316031381130614861406150616871065
:103C9A00861183120313861187140800F100F001BC
:103CAA003A30710203185F2E30307102031C5F2E06
:103CBA00F001F00A700C0800803083120313E40646
:103CCA006508D5006608D6006708D7006208D800DC
:103CDA006308D9006408DA000A168A11C525831216
:103CEA0003135508E2005608E3005708E4000800E9
:103CFA00FF30831603138500831203131F083F390D
:103D0A0040389F00831603131F171F08F039023823
:103D1A009F009F17C730831203139F050930F000D5
:103D2A00F00B952E982E831203131F140800FB0024
:103D3A00F901FA0179087B07F800780884008317EB
:103D4A0080080319080079087B07F80078088400BE
:103D5A00831700080A168A11A2230A168A15013047
:103D6A00F9070318FA0A0030FA079F2EFA00F80139
:103D7A00F90178087A0784000A168A1100200A16BF
:103D8A008A1500380319080078087A0784000A1689
:103D9A008A1100200A168A150A168A11A2230A16FF
:103DAA008A150130F8070318F90A0030F907BE2E00
:103DBA008E3083120313B3003308B400FF30320588
:103DCA000319F52E01300310B20CB10CB00CAF0C74
:103DDA00FF3E031DE82E0130B3003308B407E32E7B
:103DEA002F08F0003008F1003108F2003408B3005F
:103DFA003308F300F4010A168A1133227008831279
:103E0A000313AF007108B0007208B100080073080C
:103E1A0072047104700403194F2FF901F90AF31B94
:103E2A00242F0130F8000310F00DF10DF20DF30DFF
:103E3A00F80B182F0130F8007808F907142F7308C7
:103E4A007702031D322F72087602031D322F710882
:103E5A007502031D322F70087402031C422F70086A
:103E6A00F4027108031C710FF5027208031C720F29
:103E7A00F6027308031C730FF70201300310F30CE8
:103E8A00F20CF10CF00CFF3E031D432F0130F90236
:103E9A00031D242F7708F3007608F2007508F10055
:103EAA007408F0000800F601F31F622FF209F30903
:103EBA00F20A0319F30AF601F60AF11F692FF0094B
:103ECA00F109F00A0319F10A710870040319962F0F
:103EDA00F501F50AF11B7D2F01300310F00DF10DEC
:103EEA00FF3E031D722F0130F4007408F5076F2F8F
:103EFA0071087302031D832F70087202031C8B2F33
:103F0A007008F2027108031CF303F3020130031074
:103F1A00F10CF00CFF3E031D8C2F0130F502031D3E
:103F2A007D2F760803199E2FF209F309F20A031965
:103F3A00F30A7308F101F1077208F001F0070800AB
:103F4A00F7000130F400831603134C080739013EC9
:103F5A00B02F0310F40DFF3E031DAE2F7408FF3A75
:103F6A00F5004A08840083174B1C831375088005E3
:103F7A0077080A168A1140240A168A150130F400B5
:103F8A00831603134C0CF500F50C750C0739013E2A
:103F9A00D02F0310F40DFF3E031DCE2F7408F60038
:103FAA004A08840083174B1C8313760880040B305D
:103FBA00F5006230F400F40BE02FF50BE02F00005F
:103FCA000130F400831603134C0CF500F50C750C44
:103FDA000739013EF22F0310F40DFF3E031DF02FA7
:103FEA007408FF3AF6004A08840083174B1C8313AF
:063FFA00760880050800B6
:02400E007AFF37
:00000001FF
