:060000000A128A11E32F31
:10000A00073400341A342C343E347008F600710870
:10001A00F7007208F8000310770D780DF9007908D7
:10002A0083120313A500A508031D24280030F3003A
:10003A000030F2000030F1000030F00008007308D0
:10004A00F6007408F7007508F8000310770D780DAC
:10005A00F9007908A400A408031D3C280030F30025
:10006A000030F2000030F1000030F0000800F11713
:10007A00FF30F005FF30F1050030F205F417FF30CC
:10008A00F305FF30F4050030F5050030A300003019
:10009A00A2000030A1000030A0007F30A5029830F5
:1000AA002407F6007608A5021830F6007608A400A0
:1000BA000130F6000310A00DA10DA20DA30DF60B41
:1000CA005F2875087202031D702874087102031DE7
:1000DA00702873087002031C7D287308F0027408E4
:1000EA00031C740FF1027508031C750AF20220142E
:1000FA0001300310F00DF10DF20DFF3E031D7E28B5
:10010A000130A402031D5D28A51FA9282508803AED
:10011A00973E031899280030F3000030F2000030AF
:10012A00F1000030F000080001300310A30CA20C0B
:10013A00A10CA00CFF3E031D9A280130F600760898
:10014A00A5070319C428992818302502031CC128B9
:10015A000030F3000030F2000030F1000030F0000F
:10016A0008000130F6000310A00DA10DA20DA30D89
:10017A00F60BB8280130A502A508031DB6282308E6
:10018A00F3002208F2002108F1002008F00008001C
:10019A0083160313C6006930A0002008AD000130A1
:1001AA0083120313E807FF30680784000A168A11CE
:1001BA0000200A128A1183160313A0002008C9001E
:1001CA00C9080319DE2F4908253A0319EE284908F8
:1001DA00D32FBF01C001BD01BE01831203136808FA
:1001EA0084000A168A1100200A128A110A168A1530
:1001FA0093250A128A11031C4A2983160313BF0185
:10020A00C0010A30F0000030F100831603134008E1
:10021A00F301F3073F08F201F2070A168A152E26A0
:10022A000A128A11710883160313C001C0077008E5
:10023A00BF01BF0783120313680884000A168A11D4
:10024A0000200A128A11D03E83160313A000FF3041
:10025A0003180030A1002008BF070318C00A2108AC
:10026A00C0070130A000200883120313E8076808BA
:10027A0084000A168A1100200A128A110A168A159F
:10028A0093250A128A110318062983120313680890
:10029A0084000A168A1100200A128A112E3A031DB6
:1002AA00A429831603133E170130A00020088312E5
:1002BA000313E80783160313C701C80183126808EA
:1002CA0084000A168A1100200A128A110A168A154F
:1002DA0093250A128A11031CAC29831603134808B2
:1002EA00F101F1074708F001F0070A30F200003087
:1002FA00F3000A168A152E260A128A11831203138C
:10030A00680884000A168A1100200A128A117007E6
:10031A0083160313A0000030031801307107A100EF
:10032A002008D03EC70021080318013EFF3EC8003E
:10033A000130A000200883120313E80763298316FB
:10034A000313C701C8013E16AC293E15C229013064
:10035A0083120313E807FF30680784000A168A111C
:10036A0000200A128A1183160313C900003A0319DE
:10037A00DE2F663A0319AA29D42800303D05A000C9
:10038A0007303E05A100210820040319192F3E1E3B
:10039A00D2290630C7000030C8002D088400831314
:1003AA000008C300840A0008C400840A0008C500C3
:1003BA000330A0002008AD07430883120313A700E7
:1003CA0083160313440883120313A8008316031326
:1003DA00450883120313A9000030AA000030AB00BD
:1003EA000030AC000A168A1111210A128A11031868
:1003FA002B2A83160313430883120313A7008316B9
:10040A000313440883120313A80083160313450831
:10041A0083120313A9000A168A157B250A128A1168
:10042A0083120313270883160313C30083120313CB
:10043A00280883160313C40083120313290883169A
:10044A000313C5000330BD040030BE048316031332
:10045A00C101C2014508440443040319332BC330C4
:10046A00840083130008A000840A0008A100840AFB
:10047A000008A200840A0008A3000F300310A30C8E
:10048A00A20CA10CA00CFF3E031D432AFF3020053D
:10049A00A40000302105A5002408823EC1002508D9
:1004AA000318013EFF3EC200FF30C1070318C20A0B
:1004BA00FF30C2070330F0000030F1004208F301B8
:1004CA00F3074108F201F2070A168A152E260A12C4
:1004DA008A11710883160313C201C2077008C10189
:1004EA00C1070A30F7000030F8004208FA01FA079B
:1004FA004108F901F9070A168A1545270A128A11CD
:10050A00780883160313C201C2077708C101C1071D
:10051A00C21F952AFF30C1070318C20AFF30C2075B
:10052A004103FF3A0A128A15DF210A128A1183123D
:10053A000313450883160313B600831203134608F0
:10054A0083160313B7008312031347088316031392
:10055A00B800430883120313B50083160313440833
:10056A0083120313B6008316031345088312031379
:10057A00B70083160313360883120313B8008316D1
:10058A000313370883120313B900831603133808B9
:10059A0083120313BA000A168A11F2240A128A1164
:1005AA0083120313350883160313B6008312031349
:1005BA00360883160313B70083120313370883160A
:1005CA000313B800360883120313A7008316031314
:1005DA00370883120313A8008316031338088312FB
:1005EA000313A9000030AA008030AB003F30AC00F2
:1005FA000A168A1111210A128A1103180C2BFF30CC
:10060A0083160313C1070318C20AFF30322B83165D
:10061A000313360883120313A7008316031337083C
:10062A0083120313A80083160313380883120313D3
:10063A00A9000030AA002030AB004130AC000A16F5
:10064A008A1111210A128A11031C332B01308316D5
:10065A000313C1070318C20A0030C2078316031323
:10066A004808803AFF0080307F02031D3E2B0D3080
:10067A0047020318792B8316031347080A128A15AF
:10068A0043200A128A11831203134508D50046082B
:10069A00D6004708D70083160313430883120313AF
:1006AA00D80083160313440883120313D900831650
:1006BA000313450883120313DA000A168A11C525A3
:1006CA000A128A1183120313550883160313C300EF
:1006DA0083120313560883160313C40083120313E9
:1006EA00570883160313C500831603134208803A7A
:1006FA00FF0080307F02031D842B0A304102031859
:10070A00B72B831603134508440443040319222C08
:10071A00430883120313CE0083160313440883127B
:10072A000313CF0083160313450883120313D00063
:10073A000A168A1151220A128A11831203135108C6
:10074A0050044F044E04031D222C8316031342083F
:10075A00803AFF0080307F02031DB52B0230410230
:10076A00031C222C83160313360883120313A700D3
:10077A0083160313370883120313A800831603137F
:10078A00380883120313A9007030AA008930AB001D
:10079A004030AC000A168A1111210A128A11031874
:1007AA00D82BF730D92BF83083160313C107031857
:1007BA00C20AFF30C20741080A128A15DF210A124B
:1007CA008A1183120313450883160313B600831292
:1007DA000313460883160313B7008312031347084B
:1007EA0083160313B8004308F0004408F1004508D3
:1007FA00F2003608F3003708F4003808F5000A1248
:10080A008A110A200A128A11730883160313AC008C
:10081A007208AB007108AA007008A9002C08BC0075
:10082A002B08BB002A08BA002908B9000030C30007
:10083A000030C4000030C5009F2C83160313430800
:10084A0083120313CE00831603134408831203137F
:10085A00CF0083160313450883120313D0000A1628
:10086A008A1151220A128A1183120313510883161C
:10087A000313BC0083120313500883160313BB002F
:10088A00831203134F0883160313BA008312031348
:10089A004E0883160313B9003C0883120313B200EF
:1008AA00831603133B0883120313B1008316031341
:1008BA003A0883120313B00083160313390883120C
:1008CA000313AF000A128A1514200A128A1183121E
:1008DA0003132F08E2003008E3003108E40083160E
:1008EA000313430883120313E50083160313440812
:1008FA0083120313E60083160313450883120313B6
:10090A00E7000A168A15B2250A128A1183120313FE
:10091A00620883160313C300831203136308831642
:10092A000313C40083120313640883160313C50058
:10093A00C101C201C901C90A49080A3A0319E12CCD
:10094A004908A00001300310A00DFF3E031DA82C8A
:10095A000310200D013E84000A168A1100200A1293
:10096A008A11A1000A168A1100200A128A11A2000D
:10097A000A168A1100200A128A11A3000A168A117D
:10098A0000200A128A11A40024083C02031DD72C55
:10099A0023083B02031DD72C22083A02031DD72C39
:1009AA0021083902031CE12C0130A0002008C907E4
:1009BA0049080A3A031DA52C47084907A000480818
:1009CA000318480A003EC91BFF3EA1004108200740
:1009DA00A20042080318420A2107A3002208BF0204
:1009EA002308031CC003C002480847040319032D47
:1009FA00FF30BF070318C00AFF30C00703303D05A8
:100A0A00A00000303E05A100210820040319132D7F
:100A1A00FF30BF070318C00AFF30C0074008803AFA
:100A2A00FF0080307F02031D1C2D01303F02031C92
:100A3A002C2D203083160313A000460884002008BA
:100A4A00831780000130A0002008C6070D2D03304F
:100A5A00831603133D05A00000303E05A1002108BE
:100A6A0020040319432D2D30A000460884002008D5
:100A7A00831780000130A0002008C607FF30A000BD
:100A8A002008C9074908FF3A0319BB2D4908A000E5
:100A9A0001300310A00DFF3E031D4E2D0310200D43
:100AAA00013E84000A168A1100200A128A11F000F7
:100ABA000A168A1100200A128A11F1000A168A11EE
:100ACA0000200A128A11F2000A168A1100200A125C
:100ADA008A11F3003C08F7003B08F6003A08F500D3
:100AEA003908F4000A168A15A2270A128A1173080D
:100AFA0083160313B1007208B0007108AF007008C2
:100B0A00AE000030F3000030F2000030F1000A308D
:100B1A00F0003108F7003008F6002F08F5002E081B
:100B2A00F4000A168A1551260A128A1173088316C6
:100B3A000313B1007208B0007108AF007008AE006C
:100B4A002E08303E392D303083160313A000460894
:100B5A0084002008831780000130A0002008C607FF
:100B6A00FF30C1070318C20AFF30C2074208803AA1
:100B7A00FF0080307F02031DC42D0130410203189B
:100B8A00A82D831603134808803AFF0080307F029D
:100B9A00031DD12D09304702031CD72D08308316B7
:100BAA000313DA2D831603134708A0002008C9008F
:100BBA004908A000A101A01BA1032008C70221081F
:100BCA00031CC803C80249080319F62D2E30A000D9
:100BDA00460884002008831780000130A0002008FE
:100BEA00C60749080A128A15DF210A128A118312D6
:100BFA000313450883160313A6008312031346083A
:100C0A0083160313A70083120313470883160313DB
:100C1A00A800260883120313B800831603132708B3
:100C2A0083120313B90083160313280883120313CC
:100C3A00BA0083160313430883120313B5008316FD
:100C4A000313440883120313B600831603134508DB
:100C5A0083120313B7000A168A11F2240A128A11A0
:100C6A00831203133508CE003608CF003708D000A8
:100C7A000A168A1151220A128A1183120313510881
:100C8A0083160313BC00831203135008831603133D
:100C9A00BB00831203134F0883160313BA0083128F
:100CAA0003134E0883160313B900FF30A00020086F
:100CBA00C9074908FF3A0319142F4908A00001304F
:100CCA000310A00DFF3E031D652E0310200D013EEB
:100CDA0084000A168A1100200A128A11F0000A16E4
:100CEA008A1100200A128A11F1000A168A110020BC
:100CFA000A128A11F2000A168A1100200A128A11AF
:100D0A00F3003C08F7003B08F6003A08F5003908FA
:100D1A00F4000A168A15A2270A128A117308831682
:100D2A000313B5007208B4007108B3007008B2006A
:100D3A000030F3000030F2000030F1000A30F00019
:100D4A003508F7003408F6003308F5003208F400D5
:100D5A000A168A1551260A128A1173088316031372
:100D6A00B5007208B4007108B3007008B200320806
:100D7A00303EA00046088400200883178000013016
:100D8A00A0002008C6074908A00001300310A00DE2
:100D9A00FF3E031DCB2E0310200D013E84000A16D0
:100DAA008A1100200A128A11F0000A168A110020FC
:100DBA000A128A11F1000A168A1100200A128A11EF
:100DCA00F2000A168A1100200A128A11F3003C085E
:100DDA00F7003B08F6003A08F5003908F4000A164D
:100DEA008A1551260A128A11730883160313BC0046
:100DFA007208BB007108BA007008592E3030A00082
:100E0A00460884002008831780000130A0002008CB
:100E1A00C607FF30C7070318C80AFF30C8074808C3
:100E2A0047040319D428032F48084704031D292F10
:100E3A003C083B043A043904031D292F0130C70733
:100E4A000318C80A0030C8074908A000A101A01B5E
:100E5A00A1032108803AA2004808803A2202031D11
:100E6A00382F470820020318412F83160313470817
:100E7A00A0002008C9005B2F831603134908A000AD
:100E8A00A101A01BA1034808803AA2002108803AC8
:100E9A002202031D522F2008470203185B2F8316D4
:100EAA0003134908C700C801C71BC80383160313E5
:100EBA0040083F040319712F03303D05A00000309C
:100ECA003E05A100210820040319712FFF30BF0736
:100EDA000318C00AFF30C0073E1F8C2F4808803A0B
:100EEA00A0004008803A2002031D7D2F3F084702D8
:100EFA000318882F831603134708BF024808031CE8
:100F0A00C003C0028C2F83160313BF01C001490816
:100F1A00A000A101A01BA1032108803AA200400859
:100F2A00803A2202031D9B2F3F0820020318AB2F91
:100F3A00831603134908A000A101A01BA1032008DE
:100F4A00BF022108031CC003C002AF2F831603137C
:100F5A00BF01C00140083F040319C82F2030A00078
:100F6A00460884002008831780000130A00020086A
:100F7A00C607FF30BF070318C00AFF30C007400882
:100F8A003F04031DB32F03303D05A00000303E058A
:100F9A00A100210820040319D4282D30A0004608F6
:100FAA0084002008831780000130A0002008C607AB
:100FBA00D428460884008317800108008317E33089
:100FCA00FD000030FE000530FF00DE3084000A1606
:100FDA008A15A5250A128A112E30FD001030FE004E
:100FEA00F330FF00103084000A168A15A525830104
:060FFA000A128A157E2C8C
:1010020083120313A600A501261C0B282408FC004A
:101012007C08A5070310A40D0310A60CA608031D47
:101022000528250808008E3083120313B300330805
:10103200B400FF30320503192C2801300310B20C22
:10104200B10CB00CAF0CFF3E031D1F280130B300E2
:101052003308B4071A282F08F0003008F1003108CD
:10106200F2003408B3003308F300F4010A168A11BF
:101072007021700883120313AF007108B000720868
:10108200B100080083120313D4006E305402031C13
:1010920023290330C8004808A4000A30F7000030B2
:1010A200F8005408C900CA014908F2004A08F300CE
:1010B2006430F0000030F1000A168A159D260A12EB
:1010C2008A157108FA01FA077008F901F9070A1678
:1010D2008A1545270A128A157708093E0A128A15C7
:1010E20001200A128A15293E84000A168A1100205C
:1010F2000A128A1583120313B5000A168A110020F8
:101102000A128A15B6000A168A1100200A128A15D6
:10111200B7000330CB004B08A4006430F700003066
:10112200F8005408CC00CD014C08F9004D08FA0033
:101132000A168A1545270A128A157708123E0A12DC
:101142008A1501200A128A15293E84000A168A117C
:1011520000200A128A1583120313B8000A168A1194
:1011620000200A128A15B9000A168A1100200A12F2
:101172008A15BA000A168A11F2240A128A158312F3
:1011820003133508D1003608D2003708D3000330E4
:10119200C8004808A4005408C900CA014908F2005E
:1011A2004A08F3000A30F0000030F1000A168A15EE
:1011B2009D260A128A1570080A128A1501200A123F
:1011C2008A15293E84000A168A1100200A128A15FD
:1011D20083120313B5000A168A1100200A128A1517
:1011E200B6000A168A1100200A128A15B7005108A1
:1011F200B8005208B9005308BA000A168A11F2243C
:101202000A128A15831203133508CE003608CF005E
:101212003708D0000030B5000030B6003F30B700CC
:101222004E08B8004F08B9005008BA000A168A11D1
:10123200F224831203133508C5003608C6003708A6
:10124200C70008000B305402031CAD290330C8004C
:101252004808A4005408C900CA014908F2004A0813
:10126200F3000A30F0000030F1000A168A159D26BC
:101272000A128A1570080A128A1501200A128A15A2
:10128200293E84000A168A1100200A128A15831246
:101292000313B5000A168A1100200A128A15B60035
:1012A2000A168A1100200A128A15B7000330CB00F1
:1012B2004B08A4000A30F7000030F8005408CC00B4
:1012C200CD014C08F9004D08FA000A168A15452787
:1012D2000A128A157708093E0A128A1501200A1293
:1012E2008A15293E84000A168A1100200A128A15DC
:1012F20083120313B8000A168A1100200A128A15F3
:10130200B9000A168A1100200A128A15BA000A16B2
:101312008A11F2240A128A15831203133508D100A6
:101322003608D2003708D3000030B5000030B600CE
:101332003F30B7005108B8005208B9005308BA004C
:101342000A168A11F224831203133508C5003608DF
:10135200C6003708C70008000030B5000030B600EC
:101362003F30B7000330C8004808A40054080A12EE
:101372008A1501200A128A15293E84000A168A114A
:1013820000200A128A1583120313B8000A168A1162
:1013920000200A128A15B9000A168A1100200A12C0
:1013A2008A15BA000A168A11F22483120313350829
:1013B200C5003608C6003708C700080083120313A9
:1013C200CD00CD1F322BCD09CD0A4D08803A123EF9
:1013D200031CA52A0330C8004808A4000A30F700FD
:1013E2000030F8004D08F200F301F21BF303643001
:1013F200F0000030F1000A168A159D260A128A159D
:101402007108FA01FA077008F901F9070A168A1534
:1014120045270A128A157708093E0A128A15012001
:101422000A128A15293E84000A168A1100200A121D
:101432008A1583120313B5000A168A1100200A12B4
:101442008A15B6000A168A1100200A128A15B700F8
:101452000330C9004908A4006430F7000030F800E6
:101462004D08F900FA01F91BFA030A168A154527F5
:101472000A128A157708123E0A128A1501200A12E8
:101482008A15293E84000A168A1100200A128A153A
:1014920083120313B8000A168A1100200A128A1551
:1014A200B9000A168A1100200A128A15BA000A1611
:1014B2008A11F2240A128A15831203133508CA000C
:1014C2003608CB003708CC000330C8004808A40017
:1014D2004D08F200F301F21BF3030A30F000003072
:1014E200F1000A168A159D260A128A1570080A1238
:1014F2008A1501200A128A15293E84000A168A11C9
:1015020000200A128A1583120313B5000A168A11E3
:1015120000200A128A15B6000A168A1100200A1241
:101522008A15B7004A08B8004B08B9004C08BA003F
:101532000A168A11F224831203133508C5003608ED
:10154200C6003708C70008004D08803A753E031CE4
:10155200132B0330C8004808A4004D08F200F30121
:10156200F21BF3030A30F0000030F1000A168A156C
:101572009D260A128A1570080A128A1501200A127B
:101582008A15293E84000A168A1100200A128A1539
:1015920083120313B5000A168A1100200A128A1553
:1015A200B6000A168A1100200A128A15B700033003
:1015B200C9004908A4000A30F7000030F8004D08BD
:1015C200F900FA01F91BFA030A168A1545270A12CD
:1015D2008A157708093E0A128A1501200A128A150D
:1015E200293E84000A168A1100200A128A158312E3
:1015F2000313B8000A168A1100200A128A15B900CC
:101602000A168A1100200A128A15BA000A168A11CD
:10161200F224831203133508C5003608C6003708C2
:10162200C70008000330C8004808A4004D080A1289
:101632008A1501200A128A15293E84000A168A1187
:1016420000200A128A1583120313C5000A168A1192
:1016520000200A128A15C6000A168A110020C70045
:1016620008004D08803A123E031CF12B0330C800DB
:101672004808A4000A30F7000030F8004D08F200D4
:10168200F301F21BF3036430F0000030F1000A169C
:101692008A159D260A128A157108FA01FA0770083E
:1016A200F901F9070A168A1545270A128A157708D9
:1016B200093E0A128A1501200A128A15503E840038
:1016C2000A168A1100200A128A1583120313B50022
:1016D2000A168A1100200A128A15B6000A168A1101
:1016E20000200A128A15B7000330C9004908A40075
:1016F2006430F7000030F8004D08F900FA01F91BD8
:10170200FA030A168A1545270A128A157708123E25
:101712000A128A1501200A128A15503E84000A16FE
:101722008A1100200A128A1583120313B8000A16BE
:101732008A1100200A128A15B9000A168A1100209D
:101742000A128A15BA000A168A11F2240A128A1596
:10175200831203133508CA003608CB003708CC00C1
:101762000330C8004808A4004D08F200F301F21B40
:10177200F3030A30F0000030F1000A168A159D26A4
:101782000A128A1570080A128A1501200A128A158D
:10179200503E84000A168A1100200A128A1583120A
:1017A2000313B5000A168A1100200A128A15B60020
:1017B2000A168A1100200A128A15B7004A08B800D0
:1017C2004B08B9004C08BA000A168A11F224831297
:1017D20003133508C5003608C6003708C7000800DD
:1017E2004D08803A753E031C5F2C0330C800480840
:1017F200A4004D08F200F301F21BF3030A30F000DB
:101802000030F1000A168A159D260A128A15700800
:101812000A128A1501200A128A15503E84000A16FD
:101822008A1100200A128A1583120313B5000A16C0
:101832008A1100200A128A15B6000A168A1100209F
:101842000A128A15B7000330C9004908A4000A30F9
:10185200F7000030F8004D08F900FA01F91BFA030D
:101862000A168A1545270A128A157708093E0A12AE
:101872008A1501200A128A15503E84000A168A111E
:1018820000200A128A1583120313B8000A168A115D
:1018920000200A128A15B9000A168A1100200A12BB
:1018A2008A15BA000A168A11F22483120313350824
:1018B200C5003608C6003708C70008000330C80054
:1018C2004808A4004D080A128A1501200A128A1536
:1018D200503E84000A168A1100200A128A158312C9
:1018E2000313C5000A168A1100200A128A15C600BF
:1018F2000A168A110020C700080083120313EC01A4
:10190200ED0183160313EE0183160317D601831626
:101912000313EF0183160317D101CC3084005E0854
:1019220083178000840A5F088000840A60088000B0
:10193200840A61088000840A62088000D030840032
:10194200103083160313CA000408CB000F30CC00FA
:101952004A08840083170008CD00CA0A4B08840095
:1019620083134D088000CB0ACC0BA92CDF308400F6
:101972001F30CA000408CB000F30CC004A08840094
:1019820083170008CD00CA0A4B08840083134D0850
:101992008000CB0ACC0BBF2C78308400831603174F
:1019A2004C088000840A4D088000840A4E0880009A
:1019B200840A4F088000840A500880000A168A119F
:1019C2007D230A128A150A168A15CE250A128A154D
:1019D2000A168A1585250A128A1583120313061818
:1019E200182D83160313EE08031D182D0330CB00A8
:1019F2009730CA00CA0BFB2CCB0BFB2C002D831299
:101A020003138619062D8615072D861100300A1636
:101A12008A15EA260A128A1501300A168A15EA265A
:101A22000A128A1583160313EE01EE0A1E2D831283
:101A3200061C1E2D83160313EE0183120619392D7F
:101A4200ED08031D392D033083160313CB009730A5
:101A5200CA00CA0B2A2DCB0B2A2D2F2D831203135A
:101A62008718352D8714362D8710ED01ED0A3C2D90
:101A7200061D3C2DED018619512D0C300A168A15D2
:101A8200EA260A128A1500300A168A15EA260A126E
:101A92008A15CB300A168A150C260A128A15EE2CE4
:101AA200061E8C2D00300A168A15EA260A128A159D
:101AB20001300A168A15EA260A128A150C300A160D
:101AC2008A15EA260A128A1500300A168A15EA26AB
:101AD2000A128A1577300A168A150C260A128A15F6
:101AE20083120313061A712D033083160313CB00DE
:101AF2009730CA00CA0B7B2DCB0B7B2D802D00307B
:101B02000A168A15EA260A128A1501300A168A1559
:101B1200EA260A128A1583160317D608031D962D84
:101B220083160313EF0102309D2D03308316031336
:101B3200CA004A08EF000430CA004A088316031795
:101B4200D100831603136F08CA00CB014A0883161B
:101B52000317D700831603134B0883160317D80005
:101B62005808803A803C031DB82D57085102031CC7
:101B72003A2F033083160313CA004A088312031351
:101B8200A4008316031757080A128A1501200A12A5
:101B92008A15DF3E84008313000883120313A70013
:101BA200840A0008A800840A0008A9000A168A15F7
:101BB2007B250A128A15831203132708D5002808E9
:101BC200D6002908D700033083160313CB004B0835
:101BD20083120313A4008316031757080A128A15E7
:101BE20001200A128A15D03E840083130008831252
:101BF2000313B500840A0008B600840A0008B7007F
:101C0200E830A0000330A1008316031757080A1614
:101C12008A11D8210A128A15831203132308B200EB
:101C22002208B1002108B0002008AF000A128A156C
:101C320014200A128A15831203132F08B8003008E1
:101C4200B9003108BA000A168A11F2240A128A155A
:101C5200831203133508D8003608D9003708DA0092
:101C62000A168A11C5250A128A158312031355080A
:101C720083160313CC00831203135608831603132F
:101C8200CD0083120313570883160313CE000330CB
:101C9200CF004F0883120313A400831603175708BB
:101CA2000A128A1501200A128A15BD3E8400831683
:101CB20003134C0883178000840A4D088000840AAD
:101CC2004E0880000330CA004A0883120313A4009E
:101CD2008316031757080A128A1501200A128A1559
:101CE200BD3E84008317000883120313A700840AF1
:101CF2000008A800840A0008A9000030AA000030E9
:101D0200AB000030AC000A168A1111210A128A15A2
:101D1200031CDA2E203083160313CA000930CB00CD
:101D22004B0883120313A4008316031757080A12E1
:101D32008A1501200A128A15903E84008316031325
:101D42004A08831780000330CA004A08831203132B
:101D5200A4008316031757080A128A1501200A12D3
:101D62008A15BD3E84008317000883160317D2002C
:101D7200840A0008D300840A0008D40009308316BC
:101D82000313CA004A0883120313A400831603171D
:101D920057080A128A1501200A128A15013E903E3E
:101DA20083160313CB004B0883160317D500E030CC
:101DB200102F033083160313CA004A088312031339
:101DC200A4008316031757080A128A1501200A1263
:101DD2008A15BD3E84008317000883160317D200BC
:101DE200840A0008D300840A0008D400093083164C
:101DF2000313CA004A0883120313A40083160317AD
:101E020057080A128A1501200A128A15903E831673
:101E12000313CB004B0883160317D500E730831654
:101E22000313CA004A0883120313E8008316031738
:101E3200520883120313E90083160317530883120F
:101E42000313EA0083160317540883120313EB00EB
:101E52008316031755080A128A11CD200A128A1511
:101E6200013083160317D7070318D80A0030D807A2
:101E7200B12D831203138618662FEC08031D662FFB
:101E8200033083160313CB009730CA00CA0B472FC7
:101E9200CB0B472F4C2F83160317D608031D542F45
:101EA200D601D60A552FD60100300A168A15EA261F
:101EB2000A128A1501300A168A15EA260A128A15AA
:101EC20083120313EC01EC0A692F861C692FEC01C3
:101ED20083160317D608031DC92F08300A168A1560
:101EE200EA260A128A1500300A168A15EA260A120A
:101EF2008A15A1300A168A150C260A128A150C3088
:101F02000A168A15EA260A128A1500300A168A1556
:101F1200EA260A128A1590300A168A15ED250A1247
:101F22008A150C300A168A15EA260A128A150A3010
:101F32000A168A15EA260A128A1599300A168A158D
:101F4200ED250A128A1509300A168A15EA260A129E
:101F52008A1504300A168A15EA260A128A158C3066
:101F62000A168A150C260A128A150D300A168A15C7
:101F7200EA260A128A1509300A168A15EA260A1270
:101F82008A15A2300A168A15ED250A128A15EE2C38
:101F92000C300A168A15EA260A128A1500300A1629
:101FA2008A15EA260A128A15B6300A168A150C26EE
:101FB2000A128A1509300A168A15EA260A128A15A1
:101FC20004300A168A15EA260A128A15AB300A1656
:101FD2008A15ED250A128A1509300A168A15EA268B
:101FE2000A128A150E300A168A15EA260A128A156C
:101FF200B4300A168A15ED250A128A15EE2C103015
:102002008A000408840A8207003401340034003450
:1020120000340A34003400340034643400340034B0
:102022000034E834033400340034103427340034EC
:102032000034A034863401340034403442340F3446
:10204200003480349634983400340034E134F5346A
:1020520005340034CA349A343B34003480343F347B
:10206200CD34CC343D34D73423343C34123483342D
:102072003A34B734D1343834C63427343734383468
:1020820086343534C034D6343334CC342B34323401
:10209200703489343034E734DB342E34E5343C3464
:1020A2001E344234A2340D34003480343F340034C0
:1020B200203441340034C834423400347A34443455
:1020C20040341C3446345034C334473424347434DA
:1020D2004934973418344B34BC34BE344C346B34EA
:1020E2006E344E340334153450347934AD346034A4
:1020F200F3344934713420342034203420342034F1
:102102002034203420342A342A342A342A34203405
:10211200203420342034203420342034203400343D
:10212200203420342034203420342034203420340D
:1021320033342E3433345634203420342034203493
:10214200203420342034203400342034203420340D
:102152002034353456342034203420342034203492
:10216200203420342D343534563420342034203475
:1021720020340034203420342034203431343234BA
:1021820056342034203420342034203420342D346A
:102192003134323456342034203420340034203464
:1021A2002A342A342A3420342034533454344134E7
:1021B2004E344434203442345934203420342A34C6
:1021C2002A342A3420340034253436342E3433343D
:1021D200663441340034253437342E343334663493
:1021E200413400340834AC343D345C340F343D3473
:1021F2000834AC343D34483461343D345C340F34FB
:102202003D34B4342C344234A4348F344134B434A5
:102212002C344234B834E1344134A4348F34413460
:1022220083120313A91F3A290030AD000030AE001B
:102232008030AF002709B0002809B1002909B20097
:10224200B00A0319B10A0319B20A3008AD073108FE
:102252000318310F2D292E29AE0732080318320F29
:1022620033293429AF072D08A7002E08A8002F080C
:10227200A900AC1F61290030AD000030AE008030F3
:10228200AF002A09B0002B09B1002C09B200B00A34
:102292000319B10A0319B20A3008AD07310803184D
:1022A200310F54295529AE0732080318320F5A2923
:1022B2005B29AF072D08AA002E08AB002F08AC003F
:1022C2008030A9068030AC062C082902031D0800C4
:1022D2002B082802031D08002A0827020800730899
:1022E20003197829720871047004031D8B290030C8
:1022F200F0000030F1000030F20008000130F5007B
:102302007508F30701300310F20CF10CF00CFF3EDC
:10231200031D8429FE3072050319A6297F29013085
:10232200F5007508F3070130F0070030031801309B
:10233200F107003003180130F20701300310F20CEC
:10234200F10CF00CFF3E031D9F29FF3072050319AB
:10235200B52990290130F30201300310F00DF10D7F
:10236200F20DFF3E031DAE29F11FAB297318BF29E1
:10237200FF30F0057F30F105FF30F2050310F30C5A
:102382007308F500F601F70110300310F50DF60D94
:10239200F70DFF3E031DC6297508F0047608F10407
:1023A2007708F204740803190800F2170800831270
:1023B2000313AE000030AB000030AA000030A900C9
:1023C2000030A80021082004031DEB290130A000E1
:1023D2000030A10005302E020318AE012E08A40021
:1023E200A40DA40DA40D1F082406C73924069F00BE
:1023F2000930A400A40BFB29FE2983120313AC01AC
:10240200AD0121082D02031D082A20082C02031801
:10241200352A1F151F190B2A831603131E08831250
:102422000313A4001E08A5000030A51BFF30A60060
:10243200A7002408A807250803110318013E031D5D
:10244200A907260803110318013E031DAA0727083E
:1024520003110318013E031DAB070130AC0703183B
:10246200AD0A0030AD07022A2008F0002108F10071
:10247200F201F3012B08F7002A08F6002908F500FB
:102482002808F4000A168A15A22773088312031378
:10249200A3007208A2007108A1007008A000080041
:1024A200831203134E08D2004F08D3005008D40001
:1024B2000310530D540DD5005508DB00DB08031D36
:1024C2006B2A0030D1000030D0000030CF00003045
:1024D200CE0008004E08D2004F08D3005008D400A6
:1024E20017300310D40CD30CD20CFF3E031D722AFA
:1024F2005208D5005508D600CF17FF30CE05FF3061
:10250200CF050030D0054E08D7004F08D80050083C
:10251200D900DA018E30DB02DB1FAD2A5B08803A7C
:102522008F3E03189D2A0030D1000030D0000030C9
:10253200CF000030CE00080001300310DA0CD90CB5
:10254200D80CD70CFF3E031D9E2A0130D200520840
:10255200DB070319C82A9D2A18305B02031CC52A0F
:102562000030D1000030D0000030CF000030CE006B
:1025720008000130D2000310D70DD80DD90DDA0DA5
:10258200D20BBC2A0130DB02DB08031DBA2A560833
:102592000319D62AD709D809D909DA09D70A03199A
:1025A200D80A0319D90A0319DA0A5A08D1005908B4
:1025B200D0005808CF005708CE000800F7000130BD
:1025C200F400831603175B080739013EEA2A031059
:1025D200F40DFF3E031DE82A7408F5005908840033
:1025E20083175A1C8313750880047708F40004309B
:1025F2000310F40CFF3E031DF92A74080F390A1662
:102602008A1130240A168A110130F4008316031746
:102612005B0CF500F50C750C0739013E122B03100B
:10262200F40DFF3E031D102B7408F60059088400B8
:1026320083175A1C8313760880041A30F400F40BB3
:10264200202B00000130F400831603175B0CF50009
:10265200F50C750C0739013E302B0310F40DFF3ECB
:10266200031D2E2B7408FF3AF600590884008317C5
:102672005A1C83137608800577080F390A168A11C7
:1026820030240A168A110130F400831603175B0CFA
:10269200F500F50C750C0739013E512B0310F40DB2
:1026A200FF3E031D4F2B7408F60059088400831760
:1026B2005A1C8313760880041A30F400F40B5F2B43
:1026C20000000130F400831603175B0CF500F50CD3
:1026D200750C0739013E6F2B0310F40DFF3E031DED
:1026E2006D2B7408FF3AF6005908840083175A1CB0
:1026F2008313760880050800D93084007808831790
:102702008000840A79088000840A7A088000840A9A
:102712007B088000840A7C0880000030831603173F
:102722005A06031D962B05305906031D9C2B831652
:1027320003138501B72B0030831603175A06031DB6
:10274200A42B06305906031DAA2B831603138601F8
:10275200B72B0030831603175A06031DB22B07301E
:102762005906031D080083160313870134308312B0
:102772000313A100F130A000A00BBD2BA10BBD2BB8
:10278200C22B03300A168A15EA260A168A110D3060
:1027920083120313A100FB30A000A00BCE2BA10BD0
:1027A200CE2BD32B03300A168A15EA260A168A1173
:1027B2002A3083120313A1008D30A000A00BDF2B5F
:1027C200A10BDF2BE42B03300A168A15EA260A1620
:1027D2008A1102300A168A15EA260A168A1102306E
:1027E2000A168A15EA260A168A1108300A168A1566
:1027F200EA260A168A1100300A168A15EA260A16ED
:102802008A1106300A168A15EA260A168A11083033
:1028120083120313A0002008FD007D157D08A0008F
:1028220004300310A00CFF3E031D122C20080F39A8
:102832000A168A15EA260A168A117D080F390A161F
:102842008A15EA260A168A1100300A168A15EA261D
:102852000A168A1101300A168A15EA260800F300C0
:10286200731C4A2C0130F000831603175C080739E9
:10287200013E3D2C0310F00DFF3E031D3B2C700862
:10288200F1005908840083175A1C831371088004CD
:10289200612C0130F000831603175C080739013EF2
:1028A200542C0310F00DFF3E031D522C7008FF3A0A
:1028B200F1005908840083175A1C8313710880059C
:1028C200F31C7B2C0130F0005C0CF100F10C710C5C
:1028D2000739013E6E2C0310F00DFF3E031D6C2CD8
:1028E2007008F2005908840083175A1C8313720877
:1028F2008004932C0130F0005C0CF100F10C710C9F
:102902000739013E862C0310F00DFF3E031D842C77
:102912007008FF3AF2005908840083175A1C831387
:1029220072088005731DAA2C0130F0005D0807397A
:10293200013E9D2C0310F00DFF3E031D9B2C7008E1
:10294200F1005908840083175A1C8313710880040C
:10295200BF2C0130F0005D080739013EB22C031094
:10296200F00DFF3E031DB02C7008FF3AF10059082C
:10297200840083175A1C831371088005F31DD92C18
:102982000130F0005D0CF100F10C710C0739013ED1
:10299200CC2C0310F00DFF3E031DCA2C7008F20070
:1029A2005908840083175A1C831372088004080094
:1029B2000130F0005D0CF100F10C710C0739013EA1
:1029C200E42C0310F00DFF3E031DE22C7008FF3AC9
:1029D200F2005908840083175A1C83137208800579
:1029E2000800831203133508BB003608BC00370801
:1029F200BD0003103C0D3D0DBE003E08BF00BF08E8
:102A0200031D0A2D0030B5000030B6000030B700BB
:102A120008003808BB003908BC003A08BD000310A2
:102A22003C0D3D0DBE003E08C400C408031D202D10
:102A32000030B5000030B6000030B700080044088E
:102A42007B3EBB003B08BF073508BB003608BC0015
:102A52003708BD0010300310BD0CBC0CBB0CFF3E90
:102A6200031D2C2D3B08BE003E08C4003808BB00E5
:102A72003908BC003A08BD0010300310BD0CBC0C74
:102A8200BB0CFF3E031D3E2D3B08BE003E08C406A4
:102A92008030BB003B08C405B617B917FF30B80534
:102AA200FF30B9050030BA050030C0000030C10067
:102AB2000030C2000730BB003B08C300351C6F2D3D
:102AC2003808C007390803110318390A031DC10762
:102AD2003A08031103183A0A031DC2070130031012
:102AE200B70CB60CB50CFF3E031D702D0130031060
:102AF200B80DB90DBA0DFF3E031D782D0130C3028A
:102B0200031D5F2D0930BB003B08C300351C972D08
:102B12003808C007390803110318390A031DC10711
:102B22003A08031103183A0A031DC20701300310C1
:102B3200B70CB60CB50CFF3E031D982D01300310E7
:102B4200C20CC10CC00CFF3E031DA02D0130C302FC
:102B5200031D872D4008F0004108F1004208F200F1
:102B62003F08BB003B08F3004408BC003C08F400EB
:102B72000A168A117021700883120313B5007108B6
:102B8200B6007208B7000800831203135508DB0071
:102B92005608DC005708DD0003105C0D5D0DDE00F9
:102BA2005E08E1005808DB005908DC005A08DD0025
:102BB20003105C0D5D0DDE005E08E0006108031984
:102BC200EE2D600861020318F52D6103FF3A6007DC
:102BD200DB0019305B02031CF52D5808D50059089B
:102BE200D6005A08D70008006008031908006108D7
:102BF20060020318042E6003FF3A6107DB001930FC
:102C02005B02031808000630DB005B08DF00D71BFD
:102C1200DF17DA1B5F17D617FF30D505FF30D60551
:102C22000030D705D917FF30D805FF30D90500305D
:102C3200DA05600861020318442E01300310D80D32
:102C4200D90DDA0DFF3E031D1F2E0130E002600890
:102C5200610603193F2E0130DF025F0807390319AD
:102C62003F2E1E2E01300310D70CD60CD50CFF3E82
:102C7200031D342E0130DB005B08E10761086006AA
:102C820003196D2E332E6108600203186D2E013078
:102C92000310D50DD60DD70DFF3E031D492E013071
:102CA200E102600861060319692E0130DF025F0844
:102CB20007390319692E482E01300310DA0CD90C9A
:102CC200D80CFF3E031D5E2E0130DB005B08E007DF
:102CD20061086006031D5D2EDF1F7F2EFF30D506C3
:102CE200FF30D606FF30D7060130D5070030031873
:102CF2000130D607003003180130D7075F1F912E2D
:102D0200FF30D806FF30D906FF30DA060130D80787
:102D1200003003180130D907003003180130DA07F8
:102D2200DF015508D807560803110318560A031D78
:102D3200D907570803110318570A031DDA07DA1FC8
:102D4200B42EFF30D806FF30D906FF30DA06013044
:102D5200D807003003180130D907003003180130BA
:102D6200DA07DF01DF0A5808F0005908F1005A08B3
:102D7200F2006108DB005B08F3005F08DC005C081E
:102D8200F4000A168A117021700883120313D50009
:102D92007108D6007208D70008007030840000085D
:102DA200F600840A0008F700840A0008F800840A82
:102DB2000008F9000310780D790DFA007A088312E1
:102DC2000313A500A508031DEF2E0030F300003009
:102DD200F2000030F1000030F0000800733084008F
:102DE2000008F600840A0008F700840A0008F800C8
:102DF200840A0008F9000310780D790DFA007A08A8
:102E0200A400A408031D0E2F0030F3000030F200CE
:102E12000030F1000030F000080070308400003013
:102E22008004840A00308004840A80308004840A8A
:102E32000030800470308400FF308005840AFF3047
:102E42008005840AFF308005840A003080057330D3
:102E5200840000308004840A00308004840A8030B8
:102E62008004840A0030800473308400FF308005BF
:102E7200840AFF308005840AFF308005840A00300E
:102E820080050030A3000030A2000030A100003015
:102E9200A0007F30A502A0302407F6007608A50224
:102EA2002030F6007608A4000130F6000310A00DD1
:102EB200A10DA20DA30DF60B572F7330840000084D
:102EC200F600840A0008F700840A0008F800840A61
:102ED2000008F900703084000008FA00840A000833
:102EE200FB00840A0008FC00840A0008FD0079083F
:102EF2007D02031D862F78087C02031D862F77082A
:102F02007B02031D862F76087A02031CAB2F7330D7
:102F120084000008F600840A0008F700840A00080A
:102F2200F800840A0008F9007030840076088002F4
:102F3200840A7708031C770F8002840A7808031C2E
:102F4200780F8002840A7908031C790A8002033010
:102F520084022014703084000310800D840A800DD6
:102F6200840A800D840A800D840384038403013063
:102F7200A402031D552FA51FDC2F2508803A9F3E72
:102F82000318CC2F0030F3000030F2000030F100C3
:102F92000030F000080001300310A30CA20CA10CB9
:102FA200A00CFF3E031DCD2F0130F6007608A507C9
:102FB2000319F72FCC2F20302502031CF42F0030E9
:102FC200F3000030F2000030F1000030F0000800A1
:102FD2000130F6000310A00DA10DA20DA30DF60BFA
:102FE200EB2F0130A502A508031DE92F2308F300EA
:0E2FF2002208F2002108F1002008F00008007B
:103AF60083120313290828042704031908008030B9
:103B0600A9060800831603138113061486140615E6
:103B16000616871086118312031386118714080070
:103B2600F100F0013A30710203189F2D3030710216
:103B3600031C9F2DF001F00A700C08007E088A0015
:103B46007F088200A1250A168A158000840A0408C7
:103B56007D0603190034FF0A0319FE0AA52D8030DD
:103B660083120313E4066508D5006608D6006708C5
:103B7600D7006208D8006308D9006408DA000A167C
:103B86008A11C525831203135508E2005608E3007F
:103B96005708E4000800FF308316031385008312DC
:103BA60003131F083F3940389F00831603131F175E
:103BB6001F08F03902389F009F17C730831203137E
:103BC6009F050930F000F00BE62DE92D8312031353
:103BD6001F140800FB00F901FA0179087B07F800B9
:103BE60078088400831780080319080079087B0782
:103BF600F80078088400831700080A168A11DF2265
:103C06000A168A150130F9070318FA0A0030FA076E
:103C1600F02DFA00F801F90178087A0784000A16EF
:103C26008A1100200A168A15003803190800780838
:103C36007A0784000A168A1100200A168A150A16BF
:103C46008A11DF220A168A150130F8070318F90AC5
:103C56000030F9070F2EF401F501701C382E72089A
:103C6600F4070318F50A7308F50701300310F20D7F
:103C7600F30DFF3E031D392E01300310F10CF00C3D
:103C8600FF3E031D402E71087004031D302E75087B
:103C9600F101F1077408F001F007080073087204D7
:103CA600710470040319942EF901F90AF31B692EA5
:103CB6000130F8000310F00DF10DF20DF30DF80BC5
:103CC6005D2E0130F8007808F907592E730877023F
:103CD600031D772E72087602031D772E7108750272
:103CE600031D772E70087402031C872E7008F402D9
:103CF6007108031C710FF5027208031C720FF6029D
:103D06007308031C730FF70201300310F30CF20C57
:103D1600F10CF00CFF3E031D882E0130F902031D45
:103D2600692E7708F3007608F2007508F10074082A
:103D3600F0000800F601F31FA72EF209F309F20AB4
:103D46000319F30AF601F60AF11FAE2EF009F1097E
:103D5600F00A0319F10A710870040319DB2EF50144
:103D6600F50AF11BC22E01300310F00DF10DFF3ED6
:103D7600031DB72E0130F4007408F507B42E710840
:103D86007302031DC82E70087202031CD02E700821
:103D9600F2027108031CF303F30201300310F10C65
:103DA600F00CFF3E031DD12E0130F502031DC22E7D
:103DB60076080319E32EF209F309F20A0319F30A46
:103DC6007308F101F1077208F001F0070800F70027
:103DD6000130F400831603175B080739013EF52E00
:103DE6000310F40DFF3E031DF32E7408FF3AF50091
:103DF6005908840083175A1C8313750880057708B1
:103E06000A168A1130240A168A150130F400831620
:103E160003175B0CF500F50C750C0739013E152FE1
:103E26000310F40DFF3E031D132F7408F600590806
:103E3600840083175A1C8313760880040B30F50020
:103E46006230F400F40B252FF50B252F000001300E
:103E5600F400831603175B0CF500F50C750C073997
:103E6600013E372F0310F40DFF3E031D352F740856
:103E7600FF3AF6005908840083175A1C8313760804
:103E86008005080083120313A101F81F512FF709BB
:103E9600F809F70A0319F80AA101A10AFA1F5C2F0B
:103EA600F909FA09F90A0319FA0A0130FB007B0835
:103EB600A106A201A301780877040319932FA00194
:103EC600A00AF81B722F01300310F70DF80DFF3E04
:103ED600031D672F0130FB007B08A007642F01300C
:103EE6000310A20DA30DFF3E031D732F78087A025F
:103EF600031D7F2F77087902031C882F7708F902A4
:103F06007808031CFA03FA02221401300310F80C95
:103F1600F70CFF3E031D892F0130A002031D722FEF
:103F2600210803199B2FA209A309A20A0319A30AB0
:103F36002308F801F8072208F701F7070800003000
:103F4600FC000030FB000030FA000030F900730876
:103F56007204710470040319F72FFD01FD0AF31BA7
:103F6600C22F0130F8000310F00DF10DF20DF30D24
:103F7600F80BB62F0130F8007808FD07B22F013094
:103F8600F8000310F90DFA0DFB0DFC0DF80BC42F0C
:103F960073087702031DD92F72087602031DD92FE5
:103FA60071087502031DD92F70087402031CEA2FCD
:103FB6007008F4027108031C710FF5027208031CE5
:103FC600720FF6027308031C730FF702791401309F
:103FD6000310F30CF20CF10CF00CFF3E031DEB2F5B
:103FE6000130FD02031DC22F7C08F3007B08F2009E
:0A3FF6007A08F1007908F0000800D5
:02400E007AFF37
:00000001FF
